:10000000A8410020D91001009FAF01000911010093
:10001000091101000911010009110100000000008F
:10002000000000000000000000000000D50E0100EC
:1000300009110100000000008D0E0100F99D010072
:100040009910010053DD0100991001009910010081
:1000500099100100991001009910010099100100F8
:100060001BDD0100991001009910010039DD01002C
:1000700099100100991001009910010099100100D8
:1000800099100100991001009910010099100100C8
:1000900099100100991001009910010099100100B8
:1000A00099100100991001009910010099100100A8
:1000B0009910010099100100991001009910010098
:1000C0009910010099100100991001009910010088
:0C00D00099100100991001009910010026
:0400DC00FFFFFFFF24
:1000E00080F0004002E000BF81F0004142001FBFED
:1000F0005FEA410392EA030F7FEA226C7FEA236CF6
:100100006AD04FEA1262D2EB1363C1BFD2184140EA
:1001100048404140B8BF5B42192B88BF704710F080
:10012000004F40F4000020F07F4018BF404211F023
:10013000004F41F4000121F07F4118BF494292EA8B
:10014000030F3FD0A2F1010241FA03FC10EB0C00B7
:10015000C3F1200301FA03F100F0004302D5494244
:1001600060EB4000B0F5000F13D3B0F1807F06D3F1
:1001700040084FEA310102F10102FE2A51D2B1F1E9
:10018000004F40EBC25008BF20F0010040EA0300DE
:100190007047490040EB0000013A28BFB0F5000F5E
:1001A000EDD2B0FA80FCACF1080CB2EB0C0200FA14
:1001B0000CF0AABF00EBC25052421843BCBFD04063
:1001C0001843704792F0000F81F4000106BF80F4DD
:1001D00000000132013BB5E74FEA41037FEA226CA0
:1001E00018BF7FEA236C21D092EA030F04D092F06B
:1001F000000F08BF0846704790EA010F1CBF00209F
:10020000704712F07F4F04D1400028BF40F00040FB
:10021000704712F100723CBF00F50000704700F01B
:10022000004343F0FE4040F4000070477FEA226242
:1002300016BF08467FEA23630146420206BF5FEA13
:10024000412390EA010F40F4800070474FF0000313
:1002500004E000BF10F0004348BF40425FEA000CDA
:1002600008BF704743F0964301464FF000001CE082
:1002700050EA010208BF70474FF000030AE000BFD8
:1002800050EA010208BF704711F0004302D5404216
:1002900061EB41015FEA010C02BF84460146002088
:1002A00043F0B64308BFA3F18053A3F50003BCFAA3
:1002B0008CF2083AA3EBC25310DB01FA02FC634450
:1002C00000FA02FCC2F12002BCF1004F20FA02F257
:1002D00043EB020008BF20F00100704702F120024A
:1002E00001FA02FCC2F1200250EA4C0021FA02F2AB
:1002F00043EB020008BF20EADC7070474FF0FF0CB0
:100300001CEAD0521EBF1CEAD15392EA0C0F93EAAA
:100310000C0F6FD01A4480EA010C400218BF5FEA4C
:1003200041211ED04FF0006343EA501043EA5111BF
:10033000A0FB01310CF00040B1F5000F3EBF4900B9
:1003400041EAD3715B0040EA010062F17F02FD2ABD
:100350001DD8B3F1004F40EBC25008BF20F00100A0
:10036000704790F0000F0CF0004C08BF49024CEAB7
:10037000502040EA51207F3AC2BFD2F1FF0340EA49
:10038000C250704740F400004FF00003013A5DDCBA
:1003900012F1190FDCBF00F000407047C2F10002FB
:1003A000410021FA02F1C2F1200200FA02FC5FEAE8
:1003B000310040F1000053EA4C0308BF20EADC7032
:1003C000704792F0000F00F0004C02BF400010F4A4
:1003D000000F013AF9D040EA0C0093F0000F01F051
:1003E000004C02BF490011F4000F013BF9D041EA73
:1003F0000C018FE70CEAD15392EA0C0F18BF93EA75
:100400000C0F0AD030F0004C18BF31F0004CD8D19E
:1004100080EA010000F00040704790F0000F17BF25
:1004200090F0004F084691F0000F91F0004F14D06B
:1004300092EA0C0F01D142020FD193EA0C0F03D1C3
:100440004B0218BF084608D180EA010000F00040C6
:1004500040F0FE4040F40000704740F0FE4040F4A1
:10046000400070474FF0FF0C1CEAD0521EBF1CEA40
:10047000D15392EA0C0F93EA0C0F69D0A2EB03025E
:1004800080EA010C49024FEA402037D04FF08053F8
:1004900043EA111143EA10130CF000408B4238BFBD
:1004A0005B0042F17D024FF4000C8B4224BF5B1ACB
:1004B00040EA0C00B3EB510F24BFA3EB510340EA19
:1004C0005C00B3EB910F24BFA3EB910340EA9C00C7
:1004D000B3EBD10F24BFA3EBD10340EADC001B0137
:1004E00018BF5FEA1C1CE0D1FD2A3FF650AF8B42DB
:1004F00040EBC25008BF20F0010070470CF0004CE8
:100500004CEA50207F32C2BFD2F1FF0340EAC25012
:10051000704740F400004FF00003013A37E792F0D3
:10052000000F00F0004C02BF400010F4000F013A31
:10053000F9D040EA0C0093F0000F01F0004C02BF2C
:10054000490011F4000F013BF9D041EA0C0195E795
:100550000CEAD15392EA0C0F08D142027FF47DAF2E
:1005600093EA0C0F7FF470AF084676E793EA0C0F1E
:1005700004D14B023FF44CAF08466EE730F0004C1C
:1005800018BF31F0004CCAD130F000427FF45CAFAC
:1005900031F000437FF43CAF5FE700BF4FEA400219
:1005A000B2F1FE4F0FD34FF09E03B3EB12620DD9A1
:1005B0004FEA002343F0004310F0004F23FA02F00B
:1005C00018BF404270474FF00000704712F1610FB2
:1005D00001D1420205D110F0004008BF6FF0004089
:1005E00070474FF00000704753B94AB9002908BF5F
:1005F00000281CBF4FF0FF314FF0FF3000F06CB906
:10060000ADF1080C6DE904CE00F006F8DDF804E069
:10061000DDE9022304B070472DE9F047089E0D463E
:1006200004468E46002B40F082808A42174646D907
:10063000B2FA82F24AB1C2F1200105FA02F320FABD
:1006400001F1974041EA030E94404FEA1748230C0A
:10065000BEFBF8FCB9B208FB1CEE43EA0E430CFBF0
:1006600001F098420AD9FB180CF1FF3580F0168191
:10067000984240F21381ACF1020C3B441B1AA4B225
:10068000B3FBF8F008FB103344EA034400FB01F12C
:10069000A14209D93C1900F1FF3380F00181A14248
:1006A00040F2FE8002383C44641A40EA0C400021CB
:1006B0001EB1D4400023C6E90043BDE8F08702B96B
:1006C000FFDEB2FA82F2002A4FD1CB1B4FEA174E5F
:1006D0001FFA87F80121B3FBFEFC250C0EFB1C332F
:1006E00045EA034508FB0CF3AB4207D97D190CF131
:1006F000FF3002D2AB4200F2E7808446ED1AA3B28B
:10070000B5FBFEF00EFB105543EA054408FB00F86C
:10071000A04507D93C1900F1FF3302D2A04500F2F1
:10072000D7801846A4EB080440EA0C40C0E78B428F
:1007300008D9002E00F0AF800021C6E90005084668
:10074000BDE8F087B3FA83F100294BD1AB4202D365
:10075000824200F2B780841A65EB030301209E46B3
:10076000002EAAD0C6E9004EA7E7C2F1200C01FA7C
:1007700002F3974020FA0CF04FEA174E21FA0CFCD6
:100780001843BCFBFEF1050C0EFB11CC1FFA87F8D9
:1007900045EA0C4501FB08F3AB4204FA02F409D91F
:1007A0007D1901F1FF3C80F08B80AB4240F28880E4
:1007B00002393D44EB1A85B2B3FBFEF00EFB103359
:1007C00045EA034500FB08F3AB4207D97D1900F168
:1007D000FF3C71D2AB426FD902383D44EB1A40EA7C
:1007E000014178E7C1F1200C8B4022FA0CF71F433E
:1007F00020FA0CF405FA01F34FEA174E25FA0CF52E
:100800001C43230CB5FBFEF91FFA87F80EFB1955A4
:1008100043EA054509FB08FAAA4502FA01F200FA83
:1008200001F308D97D1909F1FF3047D2AA4545D90E
:10083000A9F102093D44A5EB0A05A4B2B5FBFEF0FF
:100840000EFB105544EA054400FB08F8A04507D903
:100850003C1900F1FF352DD2A0452BD902383C447C
:1008600040EA0940A4EB0804A0FB02894C45C646B7
:100870004D4619D316D05EB1B3EB0E0264EB0504FE
:1008800004FA0CFCCA404CEA0202CC40C6E900243F
:100890000021BDE8F087314630460EE7AC46EDE674
:1008A000184601E74345E6D2B8EB020E69EB0705AF
:1008B0000138E0E72846D3E760468FE78146BAE78C
:1008C000614677E708464BE7ACF1020C3D4415E77B
:1008D00002383C4426E700BF704700BF014800785B
:1008E000704700000000002004490A78904201D3BC
:1008F00000207047496801EB40107047000000205D
:100900002DE9F8431546044600F10802C81C41428F
:10091000DFF89CC01F46281A0023089EBCEB050C7C
:100920009B4104D240F2E451702003F0F5F8214BD2
:10093000994204DD40F2E551702003F0EDF81E4BC2
:10094000994204DA40F2E651702003F0E5F81B49C1
:100950008842A8BF1A4903DA0028B8BF174900DA4D
:100960004018214602F040FD206820F07F41E81940
:10097000C01C2160002E08BF7A3008D0012E08BFAD
:10098000453004D040F28961702003F0C5F86A4612
:10099000211D02F029FD9DF9000000286068C4BFF8
:1009A000401C606020F07F406060BDE8F88300007C
:1009B000FF7F841E0020A10700E05EF80080841EF7
:1009C00000807BE170B50546202A27D019481A4CD3
:1009D00000EB831C0CEB420004EB8303202922D0A4
:1009E0000CEB410140784C784870204601460CEBF6
:1009F0004100914205704078F8D193F82220202AD6
:100A00001ABF0CEB4202547083F8214020220CEBF9
:100A1000410C8CF8012083F8221070BD40F289212E
:100A2000702003F079F893F82040407883F8200094
:100A3000DBE700004C0D0020CC0D00202DE9F34F2A
:100A400087B00446002002909E48089F9E4E00EB0F
:100A50008700039090F820502020E9460DF104080B
:100A60008DF8000006F5207A202D18BF0AEB871BB1
:100A700032D000BF05EB850006EB8000011D8068C9
:100A80002268101A0002C21700EB1260001223D471
:100A90006089D0B14889C0B9084600F0DBFC05AADE
:100AA00004A902F0A1FC9DF914000028CCBF01208C
:100AB000002000F1330104982268101A0002C217C6
:100AC00000EB12600012884206DB0BEB450089F850
:100AD00000504578202DCDD199F8000088F800000D
:100AE000A146202D1CBF794800EB871B00F0E58054
:100AF00005EB850106EB810AD9F80420DAF8041029
:100B00004846891A0902CA1701EB12610AF1040763
:100B100009121FD47989002900F0CF80418900296A
:100B200040F0CB8000F096FC05AA04A902F05CFC22
:100B30009DF914000028CCBF0120002000F13301F2
:100B400004983A68101A0002C21700EB12600012F3
:100B500088427DDA88F800509AF8100099F80C1055
:100B6000884205D90BEB45004578202DC0D1A4E083
:100B70009DF80400D4E9002100EB800006EB800022
:100B8000891A806820F07F42084420F07F40C4E941
:100B90000020012002904B4890F82B0018B109B0BA
:100BA0000020BDE8F08F0398DDF820806F4690F8B4
:100BB000205020200DF1040A8DF80000202D1CBFCC
:100BC000424800EB881930D005EB850006EB800029
:100BD000011D80682268101A0002C21700EB126023
:100BE000001222D46089D0B14889C0B9084600F00B
:100BF00031FC05AA04A902F0F7FB9DF914000028B6
:100C0000CCBF0120002000F1330104982268101AA3
:100C10000002C21700EB12600012884205DB09EBEC
:100C200045003D704578202DCED138788AF80000F7
:100C30002746202D1CBF254800EB881B3DD005EB27
:100C4000850106EB8109384609F104087A6800E05D
:100C500033E0D9F80410891A0902CA1701EB1261AE
:100C600009121DD4B8F80A1039B3418929BB00F024
:100C7000F1FB05AA04A902F0B7FB9DF914000028B6
:100C8000CCBF0120002000F133010498D8F80020E7
:100C9000101A0002C21700EB1260001288420CDA30
:100CA0008AF8005099F81010387B81427FF660AFC7
:100CB0000BEB45004578202DC1D1029809B0BDE865
:100CC000F08F0000CC0D0020CC0A00204C0D00203D
:100CD0002DE9F04F044647480E4600EB8600464F8C
:100CE00090F82050202083B098469246107007F567
:100CF0002079202D18BF09EB861B31D005EB85002C
:100D000007EB8000011D80682268101A0002C217DC
:100D100000EB1260001223D46089D0B14889C0B9B9
:100D2000084600F097FB01AA694602F05DFB9DF9B9
:100D300004000028CCBF0120002000F133010098FE
:100D40002268101A0002C21700EB126000128842DB
:100D500006DB0BEB45008AF800504578202DCDD1FD
:100D60009AF8000088F80000202D18BF09EB861AB9
:100D70003CD005EB850107EB81096168D9F80420B7
:100D80002046511A0902CA1701EB126109F1040643
:100D900009121BD4718949B3418939BB00F05AFB50
:100DA00001AA694602F020FB9DF904000028CCBF8F
:100DB0000120002000F1330100983268101A00026F
:100DC000C21700EB1260001288420FDA88F8005058
:100DD00099F81000217B884203D803B00020BDE8B9
:100DE000F08F0AEB45004578202DC2D103B00120D9
:100DF000BDE8F08FCC0D0020CC0A00202DE9F74F84
:100E00004FF0000898B016460D46C34602F094F81D
:100E10000446012D18BF022D05D040F66D114FF08C
:100E2000700002F079FEFE4901200860FD498968E2
:100E3000086000200690401E0890FB4906EB8600E3
:100E400001EB80031B1D09AF0FCB87E80F0009A83A
:100E500000F000FB0790F448BDF82E90B0F81C039A
:100E6000ADF83400B9F1000F14BF4FF0010A4FF094
:100E7000000A09981290BAF1000F09D0EB4890F8D7
:100E80002C0028B902F0E4FD002808BF012700D09B
:100E90000027E7480022149200781646012818BF60
:100EA000032843D1E248B0F80280A8EB090014906F
:100EB000C1453BD203A8059017A81090079908F1E7
:100EC00003004242DFF86CC3081A0023BCEB0101A7
:100ED00073EB030104D240F2E451702002F01CFED7
:100EE000D5498A4204DD40F2E551702002F014FE3B
:100EF000D2498A4204DA40F2E651702002F00CFE38
:100F0000CF498842A8BFCF4903DA0028B8BFCC49EF
:100F100000DA4018109A059902F066FA03980999C8
:100F200020F07F400390081A20F07F42002F18BF66
:100F3000322604D19DF83400002818BF0226B4F1EF
:100F4000807F08D00998001B0002C11700EB1160D8
:100F50000012012802DA042018990BE047B1B348C7
:100F600090F82D0020B19DF83400061C18BF022611
:100F700021460120B9F1000F02D0149B1E2B02DA8A
:100F80009DF8343013B14FF0010B401E8319A8486F
:100F90009DF83560007815900998801A20F07F4CF4
:100FA000ACEB010000024FEAE07E00EB1E60001295
:100FB000984218DB002A18BFCDF824C0099E10976C
:100FC000002701F0B3FE301A0002C11700EB1160D8
:100FD00000123E283EDA012D1FD0701E109920F01D
:100FE0007F4011B32CE07AB1002E04BF159803287E
:100FF0000AD027B99DF83400002818BF9B1E002294
:101000008DF834209046C7E707BB9DF83400E8B15F
:1010100000208DF834009B1EBEE7B4F1807F20D104
:1010200040F6E601702002F077FDB4F1807F07D032
:10103000211A0902CA1701EB12610912042903DD02
:10104000044601F079FE0CE000290ADD1BB0002007
:10105000BDE8F08F701E20F07F44204601F06CFE4A
:101060005746B4F1807F28D00998DDF828C0001BCE
:101070008BF00103744A20F07F40ACEB040C2CF0A1
:101080007F4C834298BFB0F5800FDFD26245DDD33D
:1010900020460AF0B8FE674A0799531C0E1AB6EBB1
:1010A000930F24BFA0EB010CBCEB930F10D3B24203
:1010B00008D2101A0844461C0AE040F605217020A8
:1010C00002F02AFD62452CD2511A0844401C4642C7
:1010D0005648807F50B3284645464FF0000BD8460F
:1010E000012805D0022002F06FF8012002F06CF810
:1010F000A9452CD2A6EB05014FF001034FF00302E6
:101100004FF0020001F098FF002808BF4FF00108DF
:10111000B9F1000F35D00123A6EB090103221846CF
:1011200023E040F6E521702002F0F6FCC14534BF13
:1011300040464846BBF1000F14BF00211E21084461
:10114000B042C8DB40F61821702002F0E5FC10D94F
:101150000123A6EB09010322184601F06DFF28B315
:101160007DB1711B01230322022001F065FFE8B16C
:1011700007E055EA090004D04FF41561702002F031
:10118000CBFC012303223146002001F055FF68B15A
:101190000125B8F1000F03D0129809908DF834B0F2
:1011A000DFF8A880BAF1000F0ED109E0022002F0AA
:1011B0000BF8012002F008F81BB00020BDE8F08F0A
:1011C0001A4890F82D0000B14FB3DFF860A09AF8EC
:1011D0002C0018B102F0E6FA8AF82CB0E7B3A4F1BB
:1011E000320020F07F414FF40020C8F800000023B7
:1011F0000322052001F020FF78B34FF08044052042
:1012000002F09CF81249C1F81005C1F814451149C3
:10121000E0120860054C94F82D00E0B35DE01DE09D
:101220000805004008000020CC0A0020CC0D00205A
:101230000A000020FF7F841E0020A10700E05EF866
:101240000080841E00807BE1FFFF3F0008F5014025
:1012500098F0014004F5014005E035E0DFF8B8A062
:101260009AF82C0058B32C4C94F82D0050B14FF440
:101270000020C8F80000052001F0A6FF02F0FAFAED
:1012800084F82DB006AC254894E80E10C0F8001381
:10129000C0F8042300E01CE0C0F80833C0F80CC319
:1012A0000AAC94E80E10C0F81013C0F81423C0F86C
:1012B0001833C0F81CC31BB00120BDE8F08F02F04A
:1012C0008DFA8AF82C5089E740F24931702002F0FB
:1012D00023FC02F0C1FA84F82D50A6EB0900A0F11E
:1012E0001901002904DC40F64221702002F014FCB0
:1012F00003220123104601F09FFE38B108488068A0
:10130000C0F800B00748C0F800B0BBE740F64D2178
:10131000702002F001FC0000CC0D0020CC0A00205F
:10132000080000200805004010B5154C94F82F0067
:10133000202818BF10BD94F82E2004EB820090F8EE
:101340002010202917D0DFF83CC00CEB821303EBF0
:1013500041035B7880F82030012380F8233084F843
:101360002B3084F82F10022000F0B2F8002084F80F
:101370002A00A07710BD40F29631702002F0CCFB1D
:10138000CC0D00204C0D00202DE9F05FDFF8B4807B
:1013900098F82E5008EB850090F82140202C08BFCB
:1013A000BDE8F09FDFF8A0A0DFF8A090A9F5207BB2
:1013B00009EB8517072617F8140001280ED004281A
:1013C00008BF02260AD005280CBF0326062805D030
:1013D00040F6B3014FF0700002F09EFBBAF1000F2F
:1013E00018BFAFF30080EFF3108072B607EB440133
:1013F0004A7808EB850181F8212091F82220A24249
:1014000004BF202281F82220A8B12A4621460120CB
:1014100000F05EF804EB840031465BF820202046A3
:10142000904798F82E5008EB850090F82140202C2A
:10143000BED1BDE8F09F0648002818BFAFF300807A
:1014400062B6E2E7CC0D0020000000004C0D002049
:101450000000000010B5044600680AF0D4FC014604
:10146000608994F90820DFF854C01044C21C881821
:101470000023BCEB010173EB030104D240F2E45101
:10148000702002F049FB0E498A4204DD40F2E5512A
:10149000702002F041FB0B498A4204DA40F2E65127
:1014A000702002F039FB08498842A8BF074903DAD7
:1014B0000028B4BF044910BD401810BDFF7F841E32
:1014C0000020A10700E05EF80080841E00807BE120
:1014D000DFF854C010B500230CEB821C07281ED285
:1014E000DFE800F0050505050404040001230CF8FD
:1014F0001100002B08BF10BD0C4800EB820292F8CF
:10150000220020280EBF82F821100CEB4000417011
:1015100020200CEB4103587082F8221010BD40F2DD
:101520005F21702002F0F8FA4C0D0020CC0D002055
:101530002DE9F34F83B05C48049900EB81000190E2
:1015400090F8204003982546012818BF022805D0AE
:1015500040F689214FF0700002F0DEFA0027202DBE
:101560004AD0514800910026807F002808BF0226FB
:1015700001F0DCFBDFF838A104EB84010AEB810108
:10158000DFF828914A688968121A091A22F07F4206
:1015900021F07F41964298BFB2F5800F01D2894574
:1015A00028D2444A009902EB811B22460BEB4201F0
:1015B0004C78202C16D004EB84010AEB810CDCF86B
:1015C0000480DCF808C0A8EB000828F07F48ACEBEA
:1015D000000121F07F41464598BFB8F5800FE4D265
:1015E0008945E2D3202A05D020210420009BFFF763
:1015F000E9F90446AC4215D12F48002818BFAFF3D3
:10160000008001F093FB284C94F8301020290DD075
:10161000E168821C511A0902CA1701EB1261091212
:10162000002903DD05B00020BDE8F08F202D0DD08E
:101630002A460399FFF7E2FB58B3019880F823701C
:1016400084F8305005B00120BDE8F08F94F82C00EC
:1016500018B102F0A7F884F82C7094F82D0050B15E
:1016600016494FF400200860052001F0ADFD02F09E
:1016700001F984F82D70042001F0A6FD01F000FEB0
:10168000202084F830000E48806807600D4807600D
:10169000D8E72A4620210420049BFFF793F905B0E0
:1016A0000020BDE8F08F0000CC0D0020FFFF3F00C0
:1016B000CC0A00204C0D00200000000008F501407D
:1016C0000800002008050040064910B591F82F20B9
:1016D000202A1CBF887710BD40F2F531702002F03F
:1016E0001BFA0000CC0D00202DE9F04F734E074689
:1016F00087B096F82F008A4620285AD096F82F00F7
:1017000006F10C0400EB8000A6F5407909EB800897
:1017100020208DF8000096F82E0003AA06EB80002A
:1017200001A990F82050306902903068384401F0E7
:101730005BFE9DF90C00002802DD0198401C019021
:10174000D8F8080001994318642F37D35C49002268
:10175000C91B72EB020031D3D8F80400181A20F02C
:101760007F40B0F5800F29D223F07F40606053485E
:1017700084F80CA090F82E10EA46202D1CBF51488A
:1017800000EB811B4AD005EB850009EB80086068FF
:10179000D8F804202146101A0002C21700EB12608C
:1017A00008F10406001226D4708988B3488948B12C
:1017B00034E040F65C31702002F0AEF907B0012051
:1017C000BDE8F08F2046FFF745FE05AA04A901F009
:1017D0000BFE9DF914000028CCBF0120002000F171
:1017E000330104983268101A0002C21700EB12602D
:1017F0000012884212DA8AF8005098F81010207B04
:10180000814206D80298606007B00320BDE8F08FDF
:1018100004E00BEB45004578202DB4D1274DA86896
:10182000B0F1FF3F16D001F081FAA968081A000252
:10183000C11700EB11600012022805DC02986060FD
:1018400007B00220BDE8F08F052001F0BDFC4FF08D
:10185000FF30A86095F82E309DF800202021202A26
:1018600013BF052005EB830090F82000FFF7AAF8CE
:1018700095F82E20134901EB821195F82F2001EBEA
:1018800042014870286838442860012085F82B0000
:10189000687E012805D12869401E20F07F4001F0B4
:1018A000E5FA9DF80000202803D00748407802F0B0
:1018B00003FA07B00020BDE8F08F0000CC0D002037
:1018C000FF1FA1074C0D0020080000200246DFF892
:1018D00054C010B50023BCEB0202084473EB0302B2
:1018E00004D240F2E451702002F016F90E4A9142FF
:1018F00004DD40F2E551702002F00EF90B4A9142EE
:1019000004DA40F2E651702002F006F908498842F4
:10191000A8BF084903DA0028B4BF054910BD401824
:1019200010BD0000FF7F841E0020A10700E05EF8CC
:101930000080841E00807BE1104A0B1A02F1010C2A
:10194000B3EB9C0F3CBF1846704710B5441AB4EB7C
:101950009C0F3CBF184610BD9A4203D2101A08448F
:10196000401C10BDA24204D2511A0844401C4042FF
:1019700010BD40F6E521702002F0CEF8FF7F841EF6
:101980000B4910B591F82F0020280CD091F82F00AA
:1019900091F82F10074A01EB810152F82120BDE890
:1019A00010400421104740F69701702002F0B4F86F
:1019B000CC0D0020CC0A002070B5604E6049012596
:1019C00006F5407408287CD2DFE800F00457889AB6
:1019D000B23E9FA494F82C0018B901F0FFFE84F8E1
:1019E0002C50E08A10B102F033F888B1FFF79CFC6C
:1019F00084F82950A168B1F1FF3F05D001230322EB
:101A0000052001F019FB40B1607E012810D109E0EA
:101A100040F64F01702002F07FF840F6540170202C
:101A200002F07AF82069401E20F07F4001F01EFA93
:101A300094F82F0094F82F1001EB810156F8212023
:101A4000BDE8704001211047FFF76EFC4FF0FF30FA
:101A5000A06094F8290058B194F82F0094F82F1042
:101A600001EB810156F82120BDE8704006211047A6
:101A700040F66401702002F04FF8FFF755FC84F83F
:101A8000285001F0E5FF18B194F82C0028B108E0C7
:101A900040F67301702002F03FF801F09FFE84F8D9
:101AA0002C5094F82D0058B126494FF400200860BE
:101AB000052001F089FB01F0DDFE002084F82D00F7
:101AC00000E035E094F82F0094F82F1001EB81012D
:101AD00056F82120BDE870400021104701F01AFCA3
:101AE000E08A10B101F0B4FF28B11748007803284C
:101AF00008BF657770BD40F67D01702002F00CF8DC
:101B0000124805608868056070BD0878BDE87040BF
:101B100002F0D2B8FFF708FC94F82F0094F82F10C9
:101B200001EB810156F82120BDE8704005211047E6
:101B300040F68F01702001F0EFFF0000CC0A00207A
:101B40000800002008F501400A00002008050040B8
:101B5000034810B540780AF056F980B210BD000075
:101B60000A0000202DE9F34FFF4893B08846006833
:101B7000FE4DC005C00D0ED0103840B20028B8BFD1
:101B800000F00F0000F1E020ACBF90F8000490F8E6
:101B9000140D40090DD098F800004FF0000B0028FC
:101BA00018BF012818D040F23C714FF0700001F0CE
:101BB000B3FF95F82F004FF0010B202807D098F8BD
:101BC000000048B14FF4E761702001F0A5FF40F23A
:101BD0003571702001F0A0FFE54C24B1002140F2E6
:101BE0003F70AFF300801398E24900EB800001EBF7
:101BF00080004FF00109019024B1002140F24770AC
:101C0000AFF30080B9F1000F0AD000BF95F82E6045
:101C10004FF0000A85F82BA0BBF1000F07D02EE093
:101C2000D548002818BFAFF3008062B6EEE737460C
:101C3000012020EA0706D148402200EB871100EB83
:101C400086100AF04EFA24B100214FF4B560AFF3CC
:101C5000008005EB870105EB8600096A016224B16B
:101C6000002140F2AC50AFF3008024B1002140F2DB
:101C70005170AFF3008095F82B000028BCD124B13F
:101C8000002140F25B70AFF3008001F04FF807468F
:101C900098F800000DF10809002898F80B008DF85D
:101CA000150098F80A108DF81410B8F80810ADF85F
:101CB00012100090D8F8043013D000224846FEF7E6
:101CC0001FFE0797BDF812000FAA0EA901F08CFBAA
:101CD00095F82F0020280AD02869401D20F07F4069
:101CE0001EE04846D8F80C20FEF70AFE4BE00798A5
:101CF00009300090BDF8120028B101F0A9FE10B91A
:101D00000098323000909E4841780E98814298BFEA
:101D1000009803D9091A00980844009020F07F40E9
:101D2000DDE90221891A0290084420F07F400390E7
:101D300031464846FEF782FE98F80B000090B946FF
:101D4000B8F808100EA8D8F80430D8F80C20FEF720
:101D5000D7FD0298039AA0EB090020F07F40A2EB88
:101D600009020F9922F07F42B0F5800F01D2914213
:101D700009D2DDE90221891A781827F07F4220F084
:101D80007F40CDE9022024B1002140F26270AFF320
:101D900000807A4A3946DDF84C9002EB861702A89B
:101DA00017F81920012A18BF022A3DD1029ADDF83E
:101DB0000CC0A2EB0102734B22F07F42ACEB01019D
:101DC00021F07F41022A69D3B2F5800F66D28B429F
:101DD00064D34FF0010A0EAB0DAA3146FEF778FF2F
:101DE000F0B39DF834109DF8382033468A4261D014
:101DF0000520FEF7E7FD00BF07EB490148709DF89D
:101E00003400202803BF05EB860080F8209080F87E
:101E100023A007EB400018BF80F8019032464946E6
:101E20005FF00300FFF754FB05EB860090F823708A
:101E300024B1002140F26970AFF3008052480028BD
:101E400018BFAFF30080EFF3108972B624B1002100
:101E500040F26F70AFF3008095F82B00002800E08F
:101E600024E07FF4C9AE24B1002140F27770AFF3D3
:101E700000800DF1040EBAF1000F9EE80F1000F182
:101E8000040080E80E1041D024B1002140F284709B
:101E9000AFF30080BBF1000F2BD115E0324649466D
:101EA0000420FFF715FB4FF0010ABDE73246494613
:101EB0000420B7E7202919BF07EB4100407805EB64
:101EC000860090F8200097E79FB195F82F00202812
:101ED0000FD124B1002140F28970AFF30080314668
:101EE0000220FFF725FB20B998F80000D0B30128A5
:101EF0005ED024B1002140F2A670AFF3008085F8D7
:101F00002E60012085F82B004FF0010A24B100213A
:101F100040F2AF70AFF30080B9F1000F51D024B19F
:101F2000002140F2B370AFF30080BAF1000F11D07E
:101F300095F82E0005EB800090F82100202809D0AC
:101F400024B1002140F2BA70AFF300800F4840780E
:101F500001F0B2FE24B1002140F2BF70AFF3008067
:101F6000504615E017E0000004ED00E0CC0D002025
:101F700000000000CC0A0020000000004C0D0020F2
:101F80000A000020FFFF3F000000000008000020C2
:101F900015B0BDE8F08F24B1002140F29170AFF38D
:101FA000008095F82E2004201399FFF791FAABE7F3
:101FB000002C3FF421AE002140F29C70AFF3008072
:101FC0001AE60348002818BFAFF3008062B6A6E700
:101FD000000000002DE9F04F0546E1488DB0006893
:101FE000C005C00D11D0103840B20028B8BF00F0B5
:101FF0000F0000F1E020ACBF90F8000490F8140D41
:10200000400908BF4FF0010B01D04FF0000B2878BA
:1020100000284FF000001CBF0DB0BDE8F08FDFF8C6
:102020004483D14E4FF00009CDF81800B8F1000FED
:1020300004D0002140F23360AFF3008096F82E7098
:1020400086F82B904FF0000AB8F1000F04D0002161
:102050004FF4C760AFF30080BBF1000F21D13C46C5
:10206000012020EA0407C148402200EB841100EB64
:1020700087100AF036F8B8F1000F04D000214FF4B1
:10208000B560AFF3008006EB840106EB8700096AB8
:102090000162B8F1000F04D0002140F2AC50AFF360
:1020A0000080B8F1000F04D000214FF4C860AFF3F6
:1020B000008000F03BFE044602A80190287800282A
:1020C000E87A8DF81500A97A8DF814102989ADF8F1
:1020D000121000906B6813D000220198FEF710FCDC
:1020E0000094BDF8120008AA07A901F07DF996F83E
:1020F0002F00202809D03069401D20F07F401DE0CE
:10210000EA680198FEF7FCFB46E000980930009071
:10211000BDF8120028B101F09BFC10B900983230D4
:102120000090934807994078884298BF009803D957
:10213000411A00980844009020F07F40DDE9022118
:10214000891A0290084420F07F4003903946019894
:10215000FEF774FC0194E87A0090298908A86B685E
:10216000EA68FEF7CDFBDDE90130039AC01AD21A06
:1021700020F07F40099922F07F42B0F5800F01D214
:10218000914209D2DDE90221891A601824F07F42C8
:1021900020F07F40CDE90220B8F1000F04D00021EB
:1021A00040F24660AFF3008096F82F00202814D04C
:1021B00030690299091A0902CA1701EB1261091262
:1021C0000BD5DDE90221891A20F07F42084420F076
:1021D0007F40CDE902204FF0010AB8F1000F09D08D
:1021E00000214FF4CA60AFF30080002140F2566036
:1021F000AFF300800299039A091B121B5D4821F07E
:102200007F4122F07F42B1F5800F05D2904203D387
:10221000BBF1000F0BD104E04F46BBF1000F39D0EA
:1022200094E0394602A8FEF709FC4AEA000ABAF12E
:10223000000F23D0029809F0E6FDBDF812109DF9B9
:102240001020DFF834C11144CA1C81180024BCEBF3
:10225000000074EB090043D3484882425BDC4042F3
:10226000824260DB0CF101008142A8BF444803DADE
:102270000029B8BF434800DA0918E9604FF00100AF
:102280000690B8F1000F61D0002140F26960AFF311
:1022900000805BE0BDF8120001AA694601F0A4F8D5
:1022A00096F82F00202820D03069401D20F07F4074
:1022B000DDE90221891A014421F07F41CDE90201C3
:1022C00009F0A1FDBDF812109DF910202A4B114410
:1022D000C91C42184FF0000C181A7CEB070017D2EB
:1022E00040F2E451702001F017FCBDF812000934EF
:1022F00020B101F0ADFB002808BF32341C48417802
:102300000098814284BF081A044424F07F40CFE73C
:102310001A48814204DD40F2E551702001F0FCFBD7
:102320001948814204DA40F2E651702001F0F4FBD2
:1023300014488242A8BF124803DA002AB8BF1148E5
:1023400000DA12184FF00100EA60069096F82B00B0
:1023500000287FF46BAE06980DB0BDE8F08F00004A
:1023600004ED00E000000000CC0D00204C0D00202A
:102370000A000020FFFF3F00FF7F841E0020A1070E
:1023800000807BE10080841E00E05EF82DE9F14FC3
:10239000804D8CB095F82E000020099001207E4CD5
:1023A0004FF00008A5F180078346089024B1002172
:1023B00040F2CE70AFF30080089890B385F82B8080
:1023C00024B1002140F2D370AFF3008095F82E9035
:1023D00040222BEA090607EB861007EB891182469B
:1023E00009F07FFE24B100214FF4B560AFF3008007
:1023F00005EB860005EB89010090096A016224B1B2
:10240000002140F2AC50AFF3008095F82B0080B172
:10241000002C1CBF002140F2D970C7D0AFF3008060
:10242000C4E7FFE75D48002818BFAFF3008062B63D
:10243000C4E724B1002140F2DD70AFF300800C98B6
:102440001AF81000032878D1DDF80090CDF8189024
:102450000C9999F82000884214BF4FF0000A4FF001
:10246000010A09F1200C8646202207EB861303E0BF
:10247000024603EB42004078884202D020280AD06E
:10248000F6E7202807D0864507D103EB4E004078B9
:102490008CF8000007E040460CE003EB400003EB43
:1024A00042014078487024B1002140F22D50AFF332
:1024B0000080584610EA0A0F18BF89F823B0E0B32D
:1024C00024B1002140F2E270AFF3008032460120D7
:1024D0000C99FEF7FDFF069890F8239024B1002197
:1024E00040F2ED70AFF300802D48002818BFAFF325
:1024F0000080EFF3108072B6089024B1002140F202
:10250000F270AFF3008095F82B0038B1002C1CBF9F
:10251000002140F2F6703FF449AF7FE7B9F1000FB8
:1025200008D095F82F00202804D131460220FEF76C
:10253000FFFFF8B134B1002100E009E040F60A00E5
:10254000AFF3008085F82E6085F82BB0012009904C
:1025500024B1002140F61300AFF30080089888B141
:1025600024B1002140F61700AFF3008009980DB0A8
:10257000BDE8F08F002CF1D0002140F60500AFF34C
:102580000080E6E70548002818BFAFF3008062B678
:10259000E6E70000CC0D0020000000000000000075
:1025A0000000000010B5202811D20E4991F82E30FD
:1025B000A1F1800202EB831C1CF810303BB191F8B2
:1025C0002E3002EB831212F81020012A01D00020D5
:1025D00010BD91F82E2001460020FEF779FF012062
:1025E00010BD0000CC0D00202DE9F05F7E4E80462E
:1025F00096F82E00A6F1800707EB801010F818005F
:10260000002865D096F82E90784D25B1002140F62F
:10261000AA30AFF3008007EB891414F818000128E2
:1026200018D0C0B204281CBF0528062855D02DB1EB
:102630004FF0000140F6B630AFF3008001F092FB9E
:1026400025B1002140F6BA30AFF3008014F818002D
:102650000128E6D1012425B1002140F6C130AFF3B5
:102660000080A4B3002086F82B0025B1002140F69D
:10267000C630AFF3008096F82EB0012020EA0B0997
:1026800007EB8B1107EB8910402209F02AFD25B1D9
:1026900000214FF4B560AFF3008006EB8B0006EB32
:1026A000890A006ACAF8200025B1002140F2AC5026
:1026B000AFF3008096F82B00E0B1002D1CBF002185
:1026C00040F6CC30C7D000BFAFF30080C3E70AE0CC
:1026D00040F6A131702001F01FFA4A464146012020
:1026E000FEF7F6FEACE74248002818BFAFF30080C3
:1026F00062B6B7E725B100214FF43D60AFF300802B
:102700009AF821300AF1210140461C464FF0200B77
:1027100007EB89120AF1220A04E0A34602EB4B0CF4
:102720009CF80140844202D0202C2BD0F5E7202CCD
:1027300028D0A34204D102EB43004078087005E0A2
:1027400002EB440002EB4B0140784870BAF1000FF5
:1027500011D025B1002140F22550AFF300809AF846
:102760000000A04207D125B100214FF4A560AFF3CE
:1027700000808AF800B05DB1002140F22D50AFF327
:10278000008000E025B1002140F6D430AFF3008096
:102790001848002818BFAFF30080EFF3108472B61A
:1027A00096F82B0038B1002D1CBF002140F6DA301E
:1027B0003FF451AF88E786F82E90012086F82B0071
:1027C00054B1002D08BFBDE8F09F002140F6E7306E
:1027D000AFF30080BDE8F09F0548002818BFAFF3B5
:1027E000008062B6EDE70000CC0D00200000000084
:1027F000000000000000000070B5054601F016F969
:102800000D4890F82E200024803800EB821000BF85
:1028100010F8141029B1611CCCB2202CF8D3202060
:1028200070BD064904EB840041F820502146012088
:10283000FEF74EFE204670BDCC0D0020CC0A0020D5
:102840002DE9F04100F072FA054600F019FD484C00
:10285000A068B0F1FF3F1CBF4FF0FF30A060A07F29
:10286000A8B9D4E90301081A0002C11700EB1160EE
:1028700000124FF40C7109F0F3FA21690844281A88
:102880000002C11700EB11600012C00F0CD0607E77
:10289000D0B100F057FB00BF94F82A00D0B140F24D
:1028A0004B41702001F038F994F82F0094F82F1064
:1028B000304A01EB810152F821200821904740F273
:1028C0003A41702001F028F9E81C20F07F4000F028
:1028D00033FAE1E7012684F82A6094F82F002028D3
:1028E00025D094F82F70202084F82F0084F8300031
:1028F000002584F8285084F829501F482560007866
:10290000022816BF032801200020207794F82E808B
:102910004FF001004146FEF70BFE0028F8D01748A3
:1029200000EB881010F81700022805D009E040F2EB
:102930004E41702001F0F0F8424639460620FEF77D
:10294000C7FD84F82B6004EB880090F82100202854
:1029500003D00B48407801F0AFF9207F002808BF72
:10296000BDE8F08100F0D6FC25776577BDE8F08101
:10297000CC0D0020CC0A00200A0000204C0D0020C5
:102980000800002030B5304C83B094F82F10202977
:1029900008D0A168B1F1FF3F09D040F6C2217020F4
:1029A00001F0BAF840F6C121702001F0B5F8616875
:1029B000DFF898C00B180022BCEB010172EB02019A
:1029C00004D240F2E451702001F0A6F82049884278
:1029D00004DD40F2E551702001F09EF81D49884267
:1029E00004DA40F2E651702001F096F81A4883426A
:1029F000A8BF1A4803DA002BB8BF174800DA1B1823
:102A0000184601AA694600F0EFFC9DF904000F2862
:102A1000CCBF012000200099084420F07F41A16034
:102A200094F82900002804BF03B030BD012303221D
:102A3000052000F001FB00281CBF03B030BD40F6AC
:102A4000CA21702001F068F8CC0D0020FF7F841EA1
:102A50000020A10700E05EF80080841E00807BE17A
:102A600070B51E4C202184F8201084F8211084F8C1
:102A70002210002084F8230084F82E0084F82F1000
:102A8000421EA2602060A07784F8280084F8290004
:102A90002077607784F83010114984F82C0084F88E
:102AA0002D00087048704880A4F1820110228870BF
:102AB00001F8040F521EFAD10A4D012684F82A604B
:102AC000FF202870084801F0D9F8687001F034F947
:102AD000A86000F04DFC84F8316070BDCC0D002082
:102AE0000A000020080000208913000070B5044689
:102AF0001546084609F087F90F4A011B02F1010C3F
:102B0000B1EB9C0F24BF231AB3EB9C0F0BD38A426B
:102B100003D2111B0844411C05E09A4207D2101A47
:102B20002044401C414201F10F00281A70BD40F6BC
:102B3000E521702000F0F0FFFF7F841E2DE9F041B9
:102B4000244CD4F804034FF0000510F4803F4FF4F8
:102B500000664FF0E0271CBFD4F8400100280BD0DE
:102B60004FF48030C4F80803C4F84051C7F88062BD
:102B70004FF00400FEF720FFD4F8040310F4003FE8
:102B80001CBFD4F8440100280BD04FF40030C4F827
:102B90000803C4F84451C7F880624FF00500FEF7FF
:102BA0000BFFD4F8040310F4802F1ABFD4F84801A7
:102BB0000028BDE8F0814FF48020C4F80803C4F871
:102BC0004851C7F88062BDE8F0414FF00600FEF7BB
:102BD000F3BE000000B000402DE9F0413A4D2878E6
:102BE00004286CD0E81C0122017859B1012908BFE2
:102BF0006A7002D0697800295CD0022101704078A7
:102C000000F0E2FA314CD4F804034FF0000810F45D
:102C1000002F4FF480764FF0E0271CBFD4F84C0112
:102C2000002808D04FF0030000F0CEFAC7F8806209
:102C30000320FEF7C1FED4F8040310F4802F1CBF5C
:102C4000D4F84801002808D04FF0020000F0BCFA88
:102C5000C7F880620220FEF7AFFED4F8040310F438
:102C6000003F1CBFD4F84401002808D04FF00100F9
:102C700000F0AAFAC7F880620120FEF79DFED4F8A2
:102C8000040310F4803F1ABFD4F840010028BDE8C7
:102C9000F0814FF0000000F097FAC7F8806204203E
:102CA0002870C5F80880C4F80082BDE8F041002013
:102CB000FEF782BE4FF465716C2000F02DFFBDE879
:102CC000F0410720FEF778BE14000020008000408D
:102CD000012213024FF0E0210020C1F8803101F5FC
:102CE000C071BFF34F8FBFF36F8FC1F800310C4934
:102CF0004A60431EC1F808330A4B1860C1F840010E
:102D00001B1D1860C1F844011B1D1860C1F8480163
:102D10001B1D1860C1F84C010A61034948707047D7
:102D200000800040408500401400002001480068F9
:102D30007047000004B500402DE9F05F414E0446A5
:102D4000F71E96F800C0F868BCF1010F04BFA0425E
:102D5000BDE8F09F4FF040413B4A11603B496FF4A2
:102D60008023C1F808333A4A4FF00005BCF1000F48
:102D700057D06FF4A023C1F848331560C1F844510F
:102D8000D1F848214FF0E0294FF00108002A04BF94
:102D90004FF40062C9F880224FF48033C1F8083341
:102DA000C1F84833C1F840512A4AD2F800A0A4EB38
:102DB0000A0A2AF07F4BBBF1020F3CD34FF0020A04
:102DC000BBF5800F37D2C1F84045C1F84433BCF1A0
:102DD000000F05D01168411A21F07F410229F9D373
:102DE000C7F808803D70FFF773FF1B480560001DA2
:102DF000C0F800A01949042008601949C1F80C80E6
:102E0000BA68C1F800228101C9F88012C9F800111E
:102E1000144A41071160FC60707086F80080BDE8BC
:102E2000F09FC1F84833104B1D60C1F84051156048
:102E3000C1F84451A4E7C1F8405540F2CB116C20D1
:102E400000F06AFE1700002008F5014000B00040C5
:102E500044B5004004B500400485004010850040A2
:102E60000080004004F5014040B500402DE9F041EC
:102E70002B4CE168814214BF01220022DFF8A4C07C
:102E80009CF80070022F02D0002A38D003E0002AFC
:102E900008BFBDE8F081627882B3234B4FF08042D7
:102EA0001A60224B9513C3F80853C3F84853002601
:102EB000C3F840611E4AD2F80080A0EB080828F051
:102EC0007F48B8F1020F24D3B8F5800F21D2C3F8A0
:102ED0004005C3F844532FB11368CB1A23F07F4346
:102EE000022BF9D3134B02214A071A60E060042039
:102EF0008CF801008CF80010BDE8F08104E040F28D
:102F0000D9116C2000F008FE40F2DD116C2000F0B9
:102F100003FEC3F8406540F2E9116C2000F0FCFDAF
:102F2000140000201700002008F5014000B0004008
:102F300004B5004004F501400148C0687047000036
:102F4000140000202DE9F04133486FF48024C0F8CC
:102F50000843DFF8C8C0324A00219CF8003063B152
:102F60006FF4A024C0F848431160C0F8441100BFBA
:102F7000D0F84801012280B909E0C0F84843294C43
:102F80002160C0F840111160C0F84411F0E74FF023
:102F9000E0244FF40060C4F88002022B04D040F219
:102FA000F5116C2000F0B8FD1F4E30681F4CC01C9E
:102FB00020F07F40E3681E4D98420BD03768DF1B3E
:102FC00027F07F47042F05D3B7F5800F02D2FFF714
:102FD000B3FE1BE03068181A20F07F40022813D39C
:102FE000B0F5800F10D2134B4FF080401860A260F4
:102FF00021706A60EA604000191F086004208CF8A4
:1030000001008CF8002001E0A2602170A068C5F8E2
:103010000002BDE8F081000000B000401700002071
:1030200044B5004040B5004004B500401400002005
:103030000080004008F501402DE9F047DFF874C139
:1030400001274FF000089CF800509CF801C00728A9
:103050007ED2DFE800F0040404046A6A6A00564C79
:10306000E668B6F1807F04BF6478002C02D0022DA0
:1030700005D03CE04FF40A716C2000F04DFD4FEAA2
:103080008C0404F18046ACF104042406A40D04F180
:10309000804906F5004609F530490024012D02D08B
:1030A000022D11D020E0BCF1040F05D2D6F840A1CA
:1030B000BAF1000F18D104E0D9F840A1BAF1000F1D
:1030C00012D14FF000440FE0BCF1040F05D2D6F846
:1030D00040A1BAF1000F07D104E0D9F840A1BAF13C
:1030E000000F01D144F0804414F0804FD5D1334C0F
:1030F00000F1100C07FA0CFCC4F808C3800020444F
:1031000052B10764D0F840658D1B25F07F45AA4277
:1031100098BFB5F5800F43D2C0F84015012B08BF0A
:10312000C4F804C30120BDE8F08735B1844504D15B
:1031300040F24B216C2000F0EFFC001FC0B2012BCD
:103140000CBF01240024032806D340F2251100E01F
:103150002BE06C2000F0E0FCDFF864C000F110030D
:1031600007FA03F3CCF80833CCF848338000604406
:10317000C0F840814AB1134D2E688D1B25F07F4564
:10318000AA4298BFB5F5800F0AD2C0F84015002CAE
:1031900018BFCCF80433CCF844330120BDE8F087E5
:1031A000C0F840850020BDE8F0874FF414716C2012
:1031B00000F0B2FC17000020140000200080004046
:1031C00000B0004004B50040F8B5012700240728EE
:1031D00043D2DFE800F00404040416161600214A66
:1031E00000F1100107FA01F1C2F80813810011443F
:1031F000C1F84045C1F840411B4951F820000090FA
:10320000F8BD1A4D011FCEB2297879B16A78824291
:103210000CD1174A4FF040401060012908BFFFF75A
:1032200057FD2C7013494FF08070C86006F11000F4
:1032300007FA00F11048C0F80813C0F84813B000AE
:1032400000F1804000F53040C0F84045C0F84041F2
:103250000A4850F826000090F8BD40F2BD216C20CD
:1032600000F05AFC00800040408100401700002020
:1032700008F501401400002000B0004040B10040BB
:103280001E496FF48023C1F808331D481D4A90F889
:1032900000C00020BCF1000F0AD06FF4A023C1F8D9
:1032A00048331060C1F84401D1F8481181B909E0F0
:1032B000C1F84833144B1860C1F840011060C1F8E0
:1032C0004401F1E74FF0E0224FF40061C2F88012B0
:1032D0000E494FF0FF32C1F808230D4A1060C1F8C3
:1032E0004001121D1060C1F84401121D1060C1F8A8
:1032F0004801121D1060C1F84C01704700B0004039
:103300001700002044B5004040B500400080004058
:1033100040850040084890F902000028B8BF704777
:1033200000F01F01012202FA01F14009800000F1C2
:10333000E020C0F8001270471400002010B50728E4
:103340000DD2DFE800F00404040406060600064976
:1033500002E0001F0549C0B201EB800010BD4FF430
:103360001D716C2000F0D8FB4081004040B100404E
:1033700070B51948002404210470C01E017089052D
:10338000C160FFF7A5FC01254FF0E02CEB02CCF863
:103390008031BFF34F8FBFF36F8FCCF880320F4A6D
:1033A000556095600E4801680029FCD1481EC2F89E
:1033B0000803C2F848030B480460C2F84041001DEE
:1033C0000460C2F84441001D0460C2F84841CCF8D2
:1033D0000031156070BD00001700002000B00040F3
:1033E00004B5004040B50040430B48F2376C03FB86
:1033F0000CF31B0C4FEA432CC1F800C0DFF838C0B7
:1034000003FB0C030D484CF2F72C5843400D10FB06
:103410000CFC0CEB432303F580735B1213700B68F9
:103420001844086010781F2818BF704700201070DB
:103430000868401C08607047F7C2FFFF6F0C01006E
:103440002DE9F041164C607A002827D04FF48071A6
:103450008D05284608F028FD80464FF482712846E5
:1034600008F022FD00260746B8F1000F09D0012020
:10347000C5F80803207920B12671E06908B18047BA
:10348000E66137B1C5F804610220C5F8080300F011
:103490008BFA4046BDE8F04100F05AB8BDE8F08133
:1034A0002400002010B508F0A9FD30B908F0C7FDD0
:1034B00018B908F0FAFD002802D00249022008607D
:1034C00010BD0000340C004070B500F087F900F02A
:1034D000BFFA094C4FF0804530B1FFF7E3FF012000
:1034E00028610420A07204E00320A0720120C5F826
:1034F00004030020E07170BD2400002070B5134C5F
:10350000A079F0B1012803D0E179401E814218DA98
:1035100000F09EFA054600F06FFBA179012902D95F
:10352000E179491CE1710DB1616900E02169411A3D
:10353000022902DA11F1020F07DC0DB1606100E02F
:103540002061BDE87040FFF7BFBF70BD24000020C0
:103550002DE9F04706464FF080454FF48671284626
:1035600008F0A2FC80464FF48871284608F09CFCC5
:10357000274C8246277804F1080008F009FD10B1B5
:103580004FF4D57116E04FF0010946B1A07A032837
:1035900005D10420A072FFF785FFC5F81090002622
:1035A000B8F1000F18D0C5F80C61A07A042804D037
:1035B0004FF4DE716D2000F0AFFA08F01FFD28B95E
:1035C00008F03DFD10B908F070FD08B11148066023
:1035D0000220A07200F0E6F8BAF1000F08D0C5F89A
:1035E0001061A07A022801D1FFF788FFC5F8149076
:1035F0003FB12670A07A022801D1FFF765FF00F0E5
:10360000D1F8BDE8F0470248083008F0D8BC000007
:1036100024000020340C00402DE9F0475C4C4FF0B2
:1036200000080646C4F81880437882780078E07273
:1036300063710127A271BD0784F80780052824D291
:10364000DFE800F00F03051F2100A76109E000F08B
:10365000C5F80121284608F02CFC0028F9D00220EA
:10366000A06108F052FCB0B100F00CFA217E01F02C
:10367000030188420FD1B07950B10220C5F804038C
:103680006AE04448ECE74448EAE74FF44C7149E00B
:1036900000F0CCF960E0EF604FF4827AC5F8048165
:1036A000A069C5F8180508F095FC40B908F09CFC25
:1036B00028B908F0B0FC10B908F0C1FC38B14FF0DF
:1036C00080513648D1F84412C1F34231016008F00C
:1036D00081FC40B908F088FC28B908F09CFC10B9BE
:1036E00008F0ADFC10B12D4810300760AF6002202B
:1036F000C5F80403B07978BBD5F8040310F0020FC5
:103700000ED0DFF89C90D9F80010C94341F30017A0
:10371000D9F8001041F01001C9F800107F1C07E033
:1037200040F2F1216D2000F0F7F900BF00F01AFB24
:103730005146284608F0B8FB0028F7D000F076F98B
:103740002FB9D9F8001021F01001C9F8001002209B
:10375000C5F80803C5F80481A07970B1307860B964
:1037600000F076F9064600F047FA6FF0004216B115
:10377000C4E9042001E0C4E904020121284608F05C
:1037800098FB08B100F05EF984F80A80BDE8F08784
:103790002400002001000200010003003C0500405D
:1037A00010ED00E010B5EFF3108472B60A484178CE
:1037B00029B14178491E4170417829B108E040F2B1
:1037C0000D116D2000F0A8F9807808B900F04EF9CD
:1037D000002C00D162B610BD2400002010B5EFF31C
:1037E000108472B606484178491C4170407801281F
:1037F00001D108F075FB002C00D162B610BD0000AD
:1038000024000020054810B5C17821B100210171C4
:10381000C170FFF7C7FF002010BD0000240000208A
:1038200070B50C4CE17861B90125E570E061FFF7F6
:10383000D5FF00F00DF930B1E06910B180470020EC
:10384000E061002070BD4FF080402571C0F8045346
:10385000F7E7000024000020EFF3108072B604495F
:103860008A78521C8A70002800D162B67047000026
:103870002400002010B5EFF3108472B60A48817856
:1038800029B18178491E8170417829B108E040F260
:1038900025116D2000F040F9807808B900F0E6F8B5
:1038A000002C00D162B610BD240000202DE9F041AB
:1038B00004006FF015003CD02178042939D8002984
:1038C000617838D0002934D1A178002931D1002085
:1038D00008F0B5FA002008F0A5FA4FF080484FF044
:1038E000FF31C8F808130026C8F80061C8F8046161
:1038F000C8F80C61C8F81061144F7E70A088B881B8
:1039000008F0E5FA012508B1FD707D7001214046FF
:1039100008F0CFFA08B100F095F82046FFF77CFEDA
:103920007D72002008F07EFA4FF0E0213046C1F8A9
:103930000051BDE8F0810029FBD02029F9D8A178F9
:103940002129F6D80129C2D1F3E700002400002084
:1039500001488089704700002400002010B50D4800
:1039600008F016FB0B49083948B1012008704FF0E8
:10397000E021C1F80002BDE81040FFF72FBF887AB0
:10398000022801D1FFF7A0FDBDE81040014808F072
:1039900016BB00002C0000200248807A002800D0CE
:1039A0000120704724000020F8B51F4DE87A002858
:1039B0000FD1287E00F0030008F097FA002808D005
:1039C000EFF3108172B6FFF7E7FF18B1002900D1BD
:1039D00062B6F8BD0126AE7201B962B618204FF08A
:1039E0008044C4F80803A6614FF42070ADF80000CD
:1039F000BDF80000411EADF80010F9D20027C4F850
:103A00000C71C4F810710848083008F0D4FA2F700F
:103A1000FFF75AFD6661687900F07F00C4F8380549
:103A20001820C4F80403F8BD2400002010B5044C8D
:103A3000207E00F0030008F058FA0028F8D010BDEE
:103A40002400002001490120087070477C020020FA
:103A50004FF08040D0F8000118B9034800780028E2
:103A600000D00120704700007C0200204FF0804011
:103A7000012141600021C0F8001101480170704728
:103A80007C0200200248006800F00300704700003C
:103A90001C04004010B531B1012907D04FF4427128
:103AA00005A000F00FF8D0F8140401E0D0F80804E5
:103AB00000F0010010BD00006E72665F636C6F6302
:103AC0006B2E6800024A526802B11047FEE7000000
:103AD00044000020064810B500210160012101606A
:103AE000084608F029FABDE81040012008F017BA8E
:103AF000FC1F0040074810B501214160891EC0F835
:103B000008130C2008F018FABDE810400C2008F04B
:103B100006BA000000C00040FEB5104A5568E5B185
:103B2000002203466E460A2403E0B0FBF4F0521C68
:103B3000D2B20028F9D1B0540AE000BFB3FBF4F0D0
:103B400004FB1030B3FBF4F3521ED2B23030B05449
:103B5000002AF3D13046A847FEBDFEE7440000200E
:103B600070B5174C06460D46607810B14FF0FF3027
:103B700070BD06B9134E62602570FFF7ABFFFFF70B
:103B8000B9FF3046FFF792FE0600F1D1FEF768FF5D
:103B9000FFF70AFF08F01DF9284608F0C0F90120D8
:103BA000002D09DB05F01F0100FA01F16A099200FE
:103BB00002F1E022C2F800116070304670BD0000D2
:103BC000440000205ABF00000148407870470000C0
:103BD00044000020074890F90000002809DB00F0AD
:103BE0001F02012191404009800000F1E020C0F84F
:103BF00000127047440000202DE9F04101264FF0EB
:103C0000E02231034FF000084046C2F88011BFF3B4
:103C10004F8FBFF36F8F164CC4F800010C2008F0D3
:103C2000AAF9144D2868C04340F30017286840F0F3
:103C300010002860C4F8046326607F1C02E000BF07
:103C400000F090F8D4F800010028F9D01FB92868D6
:103C500020F010002860084805686660C4F8086312
:103C6000C4F800810C2008F086F92846BDE8F081F0
:103C700000C0004010ED00E008C5004010B502464D
:103C800005200C4904E000BF01EBC0031B7933B1F0
:103C9000401EC0B2F8D24B216920FFF73DFF41F82A
:103CA000302001EBC00100224A718A7101220A71A1
:103CB00010BD0000000E002010B5052801D35A21C8
:103CC00006E00A4901EBC0000179012903D05B211C
:103CD0006920FFF721FF41798279491CC9B28A42E4
:103CE00000D04171BDE81040FFF774BF000E002006
:103CF00070B505250E4E0F4C16E0217806EBC1007D
:103D00000279012A08D1427983799A4204D0427912
:103D1000827156F8310080472078401CC0B2207074
:103D2000052801D3002020706D1EEDB2E5D270BDD4
:103D3000000E00207D02002000B508F04BF940B9CC
:103D400008F052F928B908F066F910B908F077F9C7
:103D500008B1024800BD024800BD00000C0500404B
:103D600000E7014010B508F06AF930B3EFF31080B6
:103D7000C8B1002172B6124802680368C2F300128B
:103D800043F0100303604FF0E023D3F80042D3F870
:103D900004321C4300D040BF20BF00BF00BF00BFA3
:103DA00000BF12B105E00121E4E7026822F0100231
:103DB0000260002900D062B610BD20BF10BD000017
:103DC00010ED00E0C7C20000B5C20000C1C2000093
:103DD000AFC20000ADC20000ABC20000CDC2000007
:103DE000BBC20000A5C200009DC20000A1C200002D
:103DF00097C2000001480068C06800474C000020DE
:103E0000014A1268526810474C00002001480068BF
:103E1000806800474C000020014A12681268104771
:103E20004C0000201FB5174C6079032800D20320F6
:103E30008DF801002079032800D203208DF80000BE
:103E4000E078ADF80400A078ADF80200684606F00E
:103E500085FB08B19C2110E0A068029002A806F042
:103E600093FB08B1A02108E007480068039003A86D
:103E70000AF029FD002803D0A421032000F0B4F8A3
:103E80001FBD000058000020C040000010B528B140
:103E90001422044908F025F9002010BD6FF0150028
:103EA00010BD0000F240000010B56FF02C0428BBDC
:103EB000D9B13AB1124B062920D2DFE801F01F0632
:103EC000090C10136FF0150010BD107818720CE07B
:103ED0001078587209E01068C3F80A0005E010680D
:103EE000186102E01078012808D80549012208313C
:103EF000002008F0EDF9B0F5803FE5DB204610BD6D
:103F00005000002038B50D4604001ED0EDB100F081
:103F100025F9E8B12046FFF7B1FE0F4C002204F16D
:103F200008012070284608F0D3F90BF010F80021A2
:103F3000207806F0C7FD60788DF8000068460AF02A
:103F4000B6FC0120A070002038BD6FF0150038BD10
:103F50004FF0FF3038BD00005000002070B5040065
:103F60000BD0FFF731FE4FF0FF3520B1FFF7F0FC2B
:103F7000B0F5FA7F04D9284670BD6FF0150070BD0A
:103F80000022144B114600BF33F82150854203D361
:103F900003EB8100827803E0491CC9B20C29F3D3FA
:103FA0000D48427044600D4800F0F0F9EFF31084C2
:103FB00072B60B486FF00C0100F0D6FC094800F017
:103FC00097FD18B1B221032000F00EF804B962B6D3
:103FD000002070BDC240000050000020253E0000BF
:103FE00000C00040894100000EB572B6154A556800
:103FF000D5B1002203466E460A2403E0B0FBF4F07C
:10400000521CD2B20028F9D1B05409E0B3FBF4F04D
:1040100004FB1030B3FBF4F3521ED2B23030B05474
:10402000002AF3D13046A847BFF34F8F06480168F6
:10403000064A01F4E06111430160BFF34F8F00BFF6
:10404000FDE70000500000200CED00E00400FA0540
:10405000054810B5807810B14FF0FF3010BD06F064
:1040600051FD002010BD000050000020054810B593
:10407000807810B14FF0FF3010BD06F09DFA00209F
:1040800010BD000050000020054810B5807810B128
:104090004FF0FF3010BD0AF048FD002010BD0000B9
:1040A00050000020054810B5807810B14FF0FF3067
:1040B00010BD06F039FD002010BD000050000020AA
:1040C000010001000B0002000A00050009000A00BF
:1040D0000800140007001E000600320005004B0017
:1040E00004006400030096000200FA000100F401DD
:1040F0000000FEFE8F12A2FA581643F0CE8933FC60
:104100001BE1DC3FF8B40000054A10B5526812B15B
:10411000BDE81040104783210420FFF765FF000031
:10412000280E0020054A10B5126812B1BDE81040F3
:1041300010477D210420FFF757FF0000280E0020C4
:10414000054A10B5926812B1BDE8104010478921A8
:104150000420FFF749FF0000280E002005480168F1
:1041600029B1416819B1806808B101207047002069
:1041700070470000280E002002490DC881E80D009C
:1041800000207047280E0020F8B5124C0026256844
:1041900011E00098022802D003280CD106E0206824
:1041A00010B10020266005E028210CE0206868B1ED
:1041B00001202660A847684600F06CFC0028E8D083
:1041C000052805D035210420FFF70EFF2D21FAE741
:1041D000F8BD0000640000207CB5244D0646287818
:1041E00048B1AC78691CA41C2246304607F079FF20
:1041F0000020287024E01D48443806F02BFA0028DF
:1042000032D01A4C443C2078112804D10A213E2097
:1042100008F0E2F818B12078082806D00AE013491F
:104220003046443908F0E1FA09E005213E2008F063
:10423000D3F860B10D493046443908F02BF90446F3
:104240008CB1B1783078BDE87C4008F0C5B8A08862
:10425000ADF8000001A9684608F0E1FB18B195210E
:104260000820FFF7C1FE00207CBD00009810002050
:1042700070B50A7882703AB3012A25D813230370E7
:1042800000230AE001EB430400EB4305A678EE703F
:104290006488240A5B1C2C71DBB29342F2D30023A6
:1042A0000BE000BF01EB430500EB43042E79667180
:1042B000AD882D0A5B1CA571DBB29342F2D30121BC
:1042C00001EB8200C0B270BD002070BD01210C4A1C
:1042D00040280CD2202803D8401E8140106802E0FC
:1042E000213881405068014207D100207047FF28E3
:1042F00003D0403881409068F5E701207047000006
:10430000680000200121401E81400448C06801422D
:1043100001D0012070470020704700006800002095
:1043200001490068C86070476800002004490268BD
:10433000406842F48C220A60024A10434860704789
:1043400068000020F8074002014900688860704753
:104350006800002005484FF0FF310160C90C416042
:10436000002181601F21C1607047000068000020AB
:1043700010B5FFF7EFFF0AF059FB0446024800684A
:1043800000B18047204610BD780000200149086038
:104390007047000078000020022101804180002148
:1043A0000171FE21417148F6FE71C18001498160B1
:1043B0000020704712A2FA5810B5022804D340F228
:1043C00079111720FFF710FE0149085C10BD0000AD
:1043D000340E0020F8B505460090914201D21446F3
:1043E00000E00C4655B10027E81C20F00300A8426D
:1043F00006D040F24D111720FFF7F6FD0127F3E735
:10440000124E684631707270394600F0EDF80020A7
:1044100003460099C91C21F00301009167B906EB1E
:104420008002D160002105E0D2F80CC04CF82130A8
:10443000491CC9B2A142F7D30099401C01EB840189
:10444000C0B200910228E4D3481BF8BD340E00200E
:1044500070B5044608F096FE08B1102070BD2578AE
:1044600000F0FEF802460C48618800EB85000EE083
:10447000C36853F8213043B14A1C6280A180C068F0
:1044800050F82100A060002070BD491C89B2914203
:10449000EED36180052070BD340E00202DE9F0417F
:1044A00021B1012902D00020BDE8F0810F4C002786
:1044B0003B464FF6FF7604EB810514F801C00AE095
:1044C000DC19D5F80CE0A4B25EF824E0BEF1000FD0
:1044D00004D05B1C9BB29C45F2D834460480204635
:1044E000B442E0D0BDE8F04100F034B8340E002012
:1044F0002DE9F0410646A0F57F400C4643F2020745
:10450000FF3820D0022C02D30720BDE8F0813046CE
:1045100000F05AF8050016D00C48294650F824201F
:10452000304690470A48002100EB8407F86840F8BD
:104530002610204600F08AF802462946786808F0DE
:10454000A1FD0020E1E73846DFE7000080460000DB
:10455000340E00202DE9F04190460D46074608F044
:10456000CBFD48B1164800EB8506F06850F82700EF
:1045700028B140F2171115E04FF48B7112E070680A
:1045800000281AD0284600F061F80146706808F04B
:104590002BFD040010D0F068022D40F8274004D312
:1045A0004FF491711720FFF71FFD06484246214640
:1045B00050F82530384698472046BDE8F081000085
:1045C000340E00207846000070B50C46054608F011
:1045D00093FD002805D0034800EB8400C06850F824
:1045E000250070BD340E00202DE9F843164E884694
:1045F000054600242868C01C20F0030028602046DF
:1046000000F024F8315D4843B8F1000F01D00022DA
:1046100000E02A680146009232B100274FEA0D00FF
:1046200008F00FFD1FB106E001270020F8E706EBB8
:104630008401009A4A602968641C0844E4B2286036
:10464000022CD7D3BDE8F883340E0020034931F89B
:1046500010004FF6FC71C01C084070477446000003
:10466000034801784078814200D308467047000033
:10467000340E002010020800F1E100000DD100000E
:1046800007E200000FD100002DE9FF4F264C8046C5
:1046900081B020689A46934658B1027A424503D9C0
:1046A000416851F8280040B143F2020005B0BDE86E
:1046B000F08FA5211820FFF797FC1946029808F003
:1046C0003EFD86B258460E9908F030FD85B270194D
:1046D000001D87B22068A1463946006808F084FCB6
:1046E00004001FD0678025802946201D0E9D0746A7
:1046F0005A460123009508F0D6FB208831463844FD
:104700000123029ACDF800A008F0CDFB2088C11942
:10471000384608F0F9FBD9F800004168002041F85C
:104720002840C3E70420C1E77C00002070B5144C8A
:1047300023688BB1197A814212D95A6852F8201035
:1047400071B1002542F820504A88186808F09AFC98
:10475000216800200A7A0CE0C8211820FFF744FCE9
:1047600043F2020070BD4B6853F8203033B9401C4F
:10477000C0B28242F7D8086808F079FC002070BD0A
:104780007C0000202DE9F0410D46040090464FF0DA
:10479000000609D00027E01C20F00300A04205D04D
:1047A00086211820FFF720FC0127F4E7CDB1114640
:1047B000002008F046FC0C3000EB85068FB90A4F4C
:1047C00004F10C00AA003C602572606000EB8500DB
:1047D00020600021606807F0FEFC4146386808F060
:1047E00030FC3046BDE8F0817C00002070B5084DFB
:1047F000286800280AD0002404E02046FFF796FF2E
:10480000641CE4B22868007AA042F6D870BD0000AB
:104810007C000020094910B502460968002049B112
:104820000B7A934205D9496851F82210002900D02B
:10483000081D10BDEE211820FFF7D6FB7C000020DC
:104840000A4910B502460968002059B10B7A934213
:1048500007D9496851F82210002902D031F8040B19
:10486000084410BDFC211820FFF7BEFB7C0000208F
:10487000094910B507480860084B112003EBC00434
:104880000022C4F81025C4F81425401CC0B2142816
:10489000F4D310BD0000FEFF08F5014000F0014018
:1048A00070B520240021012320FA01F2D20720D084
:1048B0004AB2002A10DB00BF4FEA52164FEA8606C2
:1048C00002F01F0506F1E02603FA05F5C6F880514F
:1048D000BFF34F8FBFF36F8F0BDB02F01F054FEA63
:1048E00052124FEA820202F1E02203FA05F5C2F801
:1048F000805201F10101A142D6D370BD70B54200D2
:104900004FF0000101D5144A1160C0F38032C0F3AA
:10491000C0339A4203D064211B20FFF765FB10F4DB
:10492000404F14D00D4A01205060831EC2F8083356
:104930000B4A9060C2F80012C2F80833094C21609B
:10494000251D28609060C2F8083321602860BDE80A
:104950007040FFF78DBF000004E5014000E000401B
:1049600000F0004000F5004070B50A4C0D46206094
:10497000FFF7C4FF2068FFF793FF00F077F8FFF719
:1049800077FF08F0F4FB284600F0AAF8BDE8704075
:1049900000F0C2B8800000202DE9FC5F2F4E834656
:1049A0003068019001272E4807F0F2FADFF8B08056
:1049B00020B9002708F1010007F001FB294C002570
:1049C0004FF0030901206060C4F80051C4F804519D
:1049D000C6F800B02060DFF890A017E0DAF8000019
:1049E000C00613D50E2008F0B3FBEFF31080009043
:1049F00072B6C4F80493D4F8000120B9D4F80401C5
:104A000008B9FFF7AFF9009800B962B6D4F8000111
:104A100018B9D4F804010028E0D0D4F80401002823
:104A2000D0D137B10198306008F1010007F0B0FA39
:104A300011E008F1010007F0ABFA0028BAD1C4F880
:104A40000893C4F80451C4F800510E2008F080FB0C
:104A5000034807F0B4FA0020BDE8FC9F04E50040DD
:104A60007E02002000E0004010ED00E010B5084894
:104A700007F0A1FA08B1242106E00548401C07F020
:104A80009AFA002803D028211D20FFF7ADFA10BDA7
:104A90007E02002070B511490A68EAB100231D4664
:104AA00001244A68521C4A60092A00D34D600E79DD
:104AB00004FA06F20E6816420BD0EFF3108372B6BA
:104AC0000C6894430C6003B962B649680160002029
:104AD00070BD5B1C092BE4D3052070BD8400002051
:104AE00002480021016041607047000084000020FE
:104AF00010B5084C617809B10F2010BDFFF7BEF862
:104B00002070FF2801D0002010BD76211F20FFF764
:104B10006BFA00008C0000200149002048707047AB
:104B20008C0000200648074A818C5288914204D1AB
:104B300090F8220008B10020704701207047000063
:104B40009A1100206C020020014948807047000043
:104B50006C0200200848094A818C5288914209D190
:104B60004FF6FF71818410F8221F19B100210170E6
:104B700001207047002070479A1100206C0200202D
:104B8000074810F8221F012907D0012101700548AC
:104B90000349008888840120704700207047000086
:104BA0009A1100206C0200200649074B8A8C5B8812
:104BB0009A4205D191F8222012B10160012070477C
:104BC000002070479A1100206C02002009498A8C4D
:104BD000A2F57F43FF3B02D00021016007E091F87E
:104BE00022200449012A02D00160012070470020E0
:104BF000704700009A1100200149088070470000AA
:104C00006C0200200549002081F822004FF6FF7059
:104C10008884034908804880704700009A1100206A
:104C20006C02002005498A8C824205D1002081F85F
:104C300022004FF6FF708884704700009A11002010
:104C40000A4A10B1012807D00EE0507860B1D2F8BE
:104C500002000860D08804E0107828B190680860ED
:104C600090898880012070470020704780020020D2
:104C7000084A012338B1012804D1137008689060F4
:104C800088889081704753700868C2F8020088884D
:104C9000D080704780020020064910B1012802D060
:104CA00005E0487800E0087808B10120704700204E
:104CB00070470000800200200149487470470000DE
:104CC000BA0A00200148C07870470000A800002000
:104CD0000148007970470000A800002030B50C4959
:104CE0004A7C9AB10A7C8AB100221A23A1F15204AB
:104CF0000A7442700370D4F85A504560D4F85E507C
:104D000085600D7C002DF3D1012030BD002030BD29
:104D1000BA0A002070B50C46054600F029F918B112
:104D2000AA212720FFF760F90348012108F007FEB8
:104D30000248C571C46270BD980A0020A800002016
:104D40000149012088717047A80000202DE9F04139
:104D50004C4D86B02E780C9C002E74D1002A72D057
:104D6000002B70D0002C6ED005F11407C5E90E01A0
:104D700087E81C00AE716E71EE70AE702E71AE8160
:104D8000EE8100F02DF9074600F024F9044606F004
:104D900013FB06F03BF894F96A0006F089FB04F176
:104DA000160006F08DFC04F1120006F07DFCF87E82
:104DB00006F0A0FC05F13800406890F86C0108B1DD
:104DC00006F04AFA94F86710012006F077F90028F7
:104DD00050D0B046012006F07FFA14222A496846D6
:104DE00007F07FF9684606F0E3F92088FFF728FD11
:104DF00028632088FFF70EFD686307F15800234EF3
:104E00000FC806F1080C8CE80F00B86EC6F8210038
:104E1000F86EC6F82500FF206872628F218F94F823
:104E20006730B87C08F017FAB97C01B10421084456
:104E3000C0B22872B4F85010091D814205D240F268
:104E400069111CE0FFE7D32119E04546012000F07D
:104E500043FB0F48006803280FD00B280DD046F8FD
:104E6000525F0A487560523039884180218801803C
:104E7000F97E017106B0BDE8F08140F2791127207A
:104E8000FFF7B2F8A800002028570000680A0020A9
:104E9000501500402DE9F047064600F0A1F8334DCB
:104EA0000446686A47780EB1012E03D1696B07F09A
:104EB0007AFA687068784FF000084FF0010950B135
:104EC00001281AD0022834D0032849D040F2C73133
:104ED0002720FFF789F8012E32D000F0EBF8394691
:104EE0000122686B07F074FE28E000BF84F8078099
:104EF00031E000BF84F807902DE0012E08D000F0CB
:104F0000D9F839460022686B07F062FE022E0BD0FA
:104F1000D4E91401401C41F10001C4E91401E07915
:104F2000012803D084F80790BDE8F08784F8078053
:104F3000FAE7012E04D0686B08F050F8022EF3D087
:104F4000D4E91401401C41F10001C4E91401E079E5
:104F50000128CFD1CAE7E879BDE8F047FEF7ACBE3B
:104F6000012EE1D0686B08F039F8F4E7A8000020C2
:104F70000448007808B10C207047034900204874A9
:104F800070470000A8000020BA0A00200C4810B5A5
:104F9000017849B100F138010078022808D040F2C8
:104FA00095112720FFF720F8BDE8104000F0A8B9C0
:104FB0004868D0F80001BDE8104006F001B90000D3
:104FC000A8000020024A9389034393815269104745
:104FD000A80000200148406870470000E000002061
:104FE0000148406870307047E0000020014A00210D
:104FF00052691047A800002070B506F013FBFFF7B8
:10500000EFFF0446FFF7E6FF0546214608F0B8FA31
:1050100095F82410012916D1002814D00A484268B6
:105020002888A2F8EE01207A82F8F001607A82F8EE
:10503000F101012082F8EC0103483838C079BDE85D
:105040007040FEF739BE70BDE000002070B5184C0E
:10505000054639B9012D05D1E078401CC0B2E07099
:10506000012818D8A16928468847A0B1607990B96D
:10507000E5B90F4810300178C80605D4E06A007819
:10508000C00601D4012000E00020A26A2AB962898A
:105090001AB1C90601D4012070BDA1898A0703D5C0
:1050A000226AD278022A01D00843F4D1002070BDD0
:1050B000A800002010B5084CA06A38B16289616A66
:1050C000D21C07F00EF8A06A606210BD40F20E41DB
:1050D0002720FEF789FF0000A800002010B5FFF789
:1050E00079FF0446FFF77CFF0146027B1548242A1E
:1050F0000ED0497B24290BD01F2A0DD0202A0BD09B
:1051000022290FD094F86600042800D1082010BD91
:10511000406890F88E110EE0222903D0406890F884
:10512000A80105E0416891F8A80191F85F100840D6
:1051300008F079F8014694F86600BDE8104008F0E0
:105140009DB80000E00000202DE9F843884606469F
:10515000FFF746FF454C002705468DF80070207884
:10516000022804D04FF48C612720FEF73DFFA07B7E
:10517000400606D44020FFF739FFE08940F04000A8
:10518000E0813B48EEB34179491C4171A87C05F0B0
:10519000B5FE05F099FE68B9A87C58B1606A4178FF
:1051A00041B10078E979C0F3C000884202D1012002
:1051B000A07043E0606A4178618121B1606B07F0C3
:1051C000DAFEA06200E0A762E08940F48070E0812E
:1051D000E770606AA9790078C0F38000884205D042
:1051E00000F02CF9E08940F48060E081606AE979A0
:1051F0000078C0F3C00088420FD1684600F0DAF8AA
:105200000BE0FFE78179491C8171A87C08B105F0AA
:105210006FFEE08940F40070E081B8F1000F04D126
:1052200031460120FFF712FF60B19DF8000010B178
:105230000020FFF72FFE0EB1FFF7DEFE00F060F852
:10524000BDE8F8839DF8000010B10120FFF722FEB1
:10525000002000F095F99DF8000010B10220FFF742
:1052600019FE002EECD0FFF7C7FEE9E7A8000020EA
:10527000BA0A00202DE9F0410E468046FFF7B0FE45
:105280001E4D04462878012804D040F21D412720F5
:10529000FEF7AAFEA078012730B10020A0700146D9
:1052A0000420FFF78FFE2771296A0878C043800722
:1052B00009D16079D0B90220FFF784FE286A00780E
:1052C000C043800712D0286A407810B10220607174
:1052D00000E0677136EA080604D001210020FFF7DC
:1052E000B5FE28B1BDE8F04100F00AB80320EEE7B2
:1052F000BDE8F041002000F0EFB80000A800002059
:1053000010B505F093FE05F081FD06F08BF90D4C0C
:10531000E089FFF76BFEE2696179A07890470A485F
:10532000417C59B1A0F1520151F8522F8A604A686C
:10533000CA6001210174E079FEF7BEFC00202070F4
:1053400010BD0000A8000020BA0A0020084810B5CF
:105350000078022804D040F2C7112720FEF744FE4F
:1053600004490120C871BDE81040FFF7C9BF000023
:10537000A8000020BA0A002030B40D4B4AB91A7AAE
:105380005C7AA24205D190F8672090F86640A2426C
:105390000BD031B11A7A90F8671030BC104606F085
:1053A00097B95A7A90F86610F7E730BC704700005A
:1053B000A80000202DE9F0410746FFF711FE044642
:1053C0001D4800260125416A0A7802F00302012ADD
:1053D00015D0022A13D0032A03D0417941F00401E9
:1053E00024E0A570C28942F40062C2810120FFF767
:1053F000E9FD1DE0E671BDE8F081E571FBE7497864
:10540000B1B1C28942F40062C281826A002AF2D03C
:10541000FB2908D8807920B1BDE8F0412020FFF7B2
:10542000E5BD3D70E7E7417941F010014171E2E7E8
:10543000E0790128E1D1DDE7A800002070B5FFF791
:10544000CFFD0446407900282FD002280ED11C4DF4
:10545000286B07F096FB48B3D4E91201401C41F1D8
:105460000001C4E91201E879FEF726FC0025657108
:10547000207920B1257100211020FFF7A3FDE078ED
:1054800070B1E570FFF766FB98B100210820FFF7C7
:1054900099FDD4E91201401C41F10001C4E9120157
:1054A000A07901280AD00120A07170BD40F26231BC
:1054B00001E040F27A312720FEF796FDA57170BD1C
:1054C000A800002003480078002801D0FFF718BF8B
:1054D00070470000A80000202DE9F0478146FFF743
:1054E00079FD0446FFF77CFD0746628F218F94F813
:1054F0006730807C07F0AFFE1E4D06464A46E86ADC
:10550000686201212046FFF737FFB87C4FF00008A2
:10551000B8B1194805F0D2FF184801210176D7E942
:105520001412C0E90412144A696A05F05FFC94F889
:10553000670007F082FE02463146012005F084FC38
:1055400004E0686A05F0BAFF05F060FCB9F1000FED
:1055500002D1404605F058FE002194F86630012241
:10556000084606F037F806F069F802202870BDE812
:10557000F0870000A800002068090020700A0020C1
:105580002DE9FC470446FFF72BFD0646FFF722FDF9
:105590000546DFF8889122460021FFF7EDFE70797D
:1055A00001274FF00008A9F1200440B1012828D0BC
:1055B000022839D0032845D04FF41B7161E0FFF772
:1055C0008DFD0146A88E07F045FF298E814200D24D
:1055D00008464C21ADF8040048534846FFF7E4FA6A
:1055E00028B18020216AFFF7EDFCF7702EE06A46B3
:1055F00001A9206B07F04CFE206210B196F83B1019
:1056000011B14748206221E09DF8001031B9A0F89F
:10561000008080F80280012108F091F9BDF80410A3
:10562000206A08F050F911E0B5F84C00ADF804001C
:105630006A4601A9206B07F02BFE206230B940F2C8
:105640005D211EE04846FFF7AFFAC0B1206A08238B
:10565000017821F008010170B27903EAC202114316
:1056600021F004010170F279042303EA820211435C
:1056700021F010010170C943890705D007E040F20D
:1056800066212720FEF7B0FCC07802280FD0206BDF
:1056900007F09CFB08B101210AE0206A0078C043B2
:1056A000800704D0FFF73EFA80F0010100E00021FE
:1056B000206A027842EA01110170717CD1B141780F
:1056C000C1B1184805F0FAFE1548283880F818804E
:1056D000D6E91212C0E904121249226A05F086FBCB
:1056E00095F8660007F0A9FD0246FB21002005F0B1
:1056F000ABFB03E005F0E2FE05F088FB012295F824
:1057000067301146002005F065FF2771206A018887
:1057100021828078A0742770BDE8FC87C800002033
:10572000980A0020680900204D53000049510000EC
:1057300075520000C5540000B5760000004870475F
:10574000D313002004498A78824203D9084490F890
:1057500043017047002070470012002004498A78F6
:10576000824203D901EB001083307047002070475C
:1057700000120020054A01EB410102EB41010268E1
:10578000C1F80B218088A1F80F017047001200209A
:105790002DE9F0410E46074615460621304607F032
:1057A00078FF0D4C60B1002004E02118401C81F806
:1057B0003B51C0B2A1788142F7D80120BDE8F08109
:1057C0003146384607F073FD082803D0204480F89E
:1057D0003B51F2E70020F1E70012002004498A78EB
:1057E000824203D901EB0010C01C704700207047B3
:1057F0000012002010B540F2D3120021084806F034
:10580000EAFC0822FF21074806F0E5FC05480021D4
:10581000001F017041704FF46171418010BD0000A4
:105820000012002074020020014908707047000037
:1058300070020020014800787047000070020020CC
:105840000B4B10B59C7884420FD9184490F8030193
:1058500003EBC00090F853310B70D0F85411116075
:10586000B0F858019080012010BD002010BD00004C
:105870000012002007498A78824209D9084490F82A
:10588000030101EBC00090F85A0100F001007047DD
:1058900000207047001200202DE9F04798469146FD
:1058A0000C46054600F038F90646102806D000F0F0
:1058B00003F9102802D01220BDE8F087184FB878FD
:1058C00008282AD2102E05D100222146284600F0B1
:1058D00007F90646BC781022601CB87007EB041567
:1058E000E81C494607F03FFE05F1830010224146BF
:1058F00007F039FE1021404607F0CBFE3C44102152
:1059000084F84301484604F5967407F0C2FEE07738
:1059100004F8296C0020E073CEE70720CCE70000F4
:1059200000120020064810B58078401E44B204E002
:10593000E0B200F039F9641E64B2002CF8DA10BD50
:1059400000120020014840887047000070020020CB
:1059500038B14AF2B811884203D80349488001207F
:1059600070470020704700007002002005498A78C7
:10597000824203D9084490F83B0108B100207047E7
:10598000012070470012002070B50D46064600F059
:10599000C3F8104C102807D004EBC00191F85A113D
:1059A000C90701D0012070BD6178082910D21028E4
:1059B00008D004EBC000012180F85A116078401C27
:1059C0006070EFE701222946304600F089F8F5E7DC
:1059D000002070BD0012002070B50B4D2878401ECD
:1059E00044B20AE005EBC40090F85A01C00702D0A7
:1059F000E0B200F021F9641E64B2002CF2DA03492F
:105A00000020487070BD00000012002070020020CD
:105A10002DE9F04100242546184E29E006EBC50784
:105A200097F85A01C00721D0284600F045F80346F0
:105A3000FFF7D4FE01460020102B09D0F21892F88F
:105A40003BC1BCF1010F02D092F84B2102B1012001
:105A5000401E01420AD10A4807F5AA7103552046A3
:105A6000641C97F85321E4B205F040FF6D1CEDB2C1
:105A70003078A842D2D8BDE8F081000000120020A2
:105A80007402002070B50A4B1B7873B1094B9C78E7
:105A90005CB1451821460AB1D81C01E005488330A5
:105AA0002A4605F0C5F8012070BD002070BD000039
:105AB0007002002000120020084910B503460020A3
:105AC0008A7806E00C1894F803419C4204D0401CEC
:105AD000C0B28242F6D8102010BD00000012002093
